:020000040800F2
:100000000000022051040008990400089904000827
:1000100099040008990400089904000800000000F1
:10002000000000000000000000000000990400082B
:1000300099040008000000009904000899040008D1
:10004000990400089904000899040008990400081C
:10005000990400089904000899040008990400080C
:1000600099040008990400089904000899040008FC
:1000700099040008990400089904000899040008EC
:1000800099040008990400089904000899040008DC
:1000900099040008990400089904000899040008CC
:1000A00099040008990400089904000899040008BC
:1000B00099040008990400089904000899040008AC
:1000C000990400089904000899040008990400089C
:1000D000990400089904000899040008990400088C
:1000E000990400089904000899040008990400087C
:1000F000990400089904000899040008990400086C
:10010000990400089904000899040008990400085B
:10011000990400089904000899040008990400084B
:10012000990400089904000899040008990400083B
:10013000990400089904000899040008990400082B
:10014000990400089904000899040008990400081B
:10015000990400089904000899040008990400080B
:1001600099040008990400089904000899040008FB
:1001700099040008990400089904000899040008EB
:0801800099040008990400082D
:1001880010B5054C237833B9044B13B10448AFF3C9
:1001980000800123237010BD5004002000000000DF
:1001A800D40700080C4B43B10C480D4910B5AFF308
:1001B80000800C48036823B910BD0A48036833B9A6
:1001C8007047094B002BF7D0BDE810401847064B85
:1001D800002BF5D0184700BF00000000D407000826
:1001E800540400204C04002000000000154B002B94
:1001F80008BF134B9D46A3F5803A00218B460F4656
:100208001348144A121A00F07DF90F4B002B00D046
:1002180098470E4B002B00D098470020002104007F
:100228000D000D48002802D00C4800F037FA00F005
:1002380041F92000290000F0E3F800F02BF900BF95
:10024800000008000000000000000000000000009E
:100258005004002090040020A5060008B1060008FC
:10026800002841F253710DDD82B0019100E000BF1A
:10027800019B5A1E002B0192F9DC01380028F4DC9E
:1002880002B07047704700BF3849394BD1F8882011
:10029800384842F47002C1F888201A68002142F0F8
:1002A80001021A6099601A6822F0847222F480327E
:1002B8001A6058601A6882B022F480221A60D960E5
:1002C800009101911A6842F480321A601A4603E0DC
:1002D800009BB3F5A06F09D0136803F400330193B2
:1002E800009B01330093019B002BF1D0204B1B682E
:1002F80013F4003318BF01230193019B012B05D090
:100308001A4B4FF000629A6002B07047184B1A49B6
:100318001A6C1A4842F080521A640A6842F4804201
:100328000A609A689A609A6842F400429A609A68E9
:1003380042F4A0529A6058601A6842F080721A60BB
:100348001A689201FCD50E49094A40F20560086016
:10035800996821F003019960996841F00201996058
:10036800936803F00C03082BFAD1C9E700ED00E00D
:100378000038024010300024007000401954400733
:10038800003C0240154A936803F00C03042B23D069
:10039800082B09D0124B114A12499268C2F3031272
:1003A8008A5CD3400B6170475068516852684302B9
:1003B800C2F3881201F03F014CBF0B4B084BB3FB53
:1003C800F1F303FB02F3054A5268C2F3014201321A
:1003D8005200B3FBF2F3DEE7034BDCE700380240E0
:1003E8000024F4000400002040787D01040800087F
:1003F800000000204C04002050040020900400203D
:100408000F4A136B43F0080382B01363BFF34F8F97
:100418000C4C4FF08063236041F253704FF4FA7133
:10042800019000E000BF019B5A1E002B0192F9DCED
:100438000139F5D1636983F400536361EEE700BFC6
:1004480000380240000C0240002103E00B4B5B58CF
:10045800435004310A480B4B42189A42F6D30A4AD1
:1004680002E0002342F8043B084B9A42F9D3FFF715
:100478000BFF00F01FF8FFF7C3FF704704080008E0
:10048800000000204C0400205004002090040020AC
:10049800FEE7000008B50021044600F08BF8044B85
:1004A8001868C36B03B19847204600F09DF900BF58
:1004B800D007000870B50F4E0F4D761BB61018BF49
:1004C800002405D0013455F8043B9847A642F9D1D9
:1004D8000A4E0B4D761B00F07BF9B61018BF0024AE
:1004E80006D0013455F8043B9847A642F9D170BDAF
:1004F80070BD00BFF8070008F807000800080008EA
:10050800F807000870B4860746D0541E002A41D068
:10051800CAB2034602E014F1FF343BD303F8012BBF
:100528009D07F8D1032C2ED9CDB245EA05250F2C0D
:1005380045EA054519D903F110022646103E0F2E4B
:1005480042F8105C42F80C5C42F8085C42F8045C23
:1005580002F11002F2D8A4F1100222F00F0204F006
:100568000F041032032C13440DD91E462246043AB8
:10057800032A46F8045BFAD8221F22F00302043249
:10058800134404F003042CB1C9B21C4403F8011B42
:100598009C42FBD170BC704714460346C2E700BFBB
:1005A800024B13B1024800F079B870470000000010
:1005B800B10600082DE9F04F354B85B00E46019085
:1005C800186800F095F8334B1B68029303F5A47381
:1005D8000393029BD3F8487137B3DDF80CA04FF0B2
:1005E8000109D3467C68651E0ED4013407EB8404E8
:1005F8004FF00008FEB1D4F800319E421BD0013DF7
:100608006B1CA4F10404F5D1234B6BB17B68002B60
:1006180039D13B6843B13846CBF80030AFF300809E
:10062800DBF80070002FDDD1194B186805B0BDE864
:10063800F04F00F065B87B682268013BAB420CBF05
:100648007D60C4F80080002AD9D0D7F88811D7F87F
:1006580004A009FA05F30B420FD0D7F88C110B420E
:100668000DD1D4F88010019890477B685345B0D1DC
:10067800DBF80030BB42C2D0ABE79047F5E7D4F8CF
:1006880080009047F1E7BB463F68002FAAD1CBE72F
:1006980048040020D007000800000000002301469D
:1006A8001A46184600F02EB838B50A4C0A4D641B95
:1006B800A4100AD004F18043013B05EB8305013CFB
:1006C80055F804399847002CF9D1BDE8384000F0B6
:1006D80085B800BF0408000800080008704700BF7C
:1006E800704700BF704700BF704700BF704700BF2A
:1006F800704700BF0120704701207047704700BF56
:10070800704700BF2DE9F8432C4D064628689846E7
:100718000F469146FFF7ECFF294B1C68D4F8483187
:10072800002B3ED05A681F2A1CDC02F1010E76B15C
:1007380003EB82010124C1F88890D3F88801944022
:100748002043022EC3F88801C1F8088123D0023261
:10075800C3F804E0286843F82270FFF7D1FF0020AF
:10076800BDE8F883174B0BB34FF4C870AFF30080A4
:100778000346D8B1D4F848210260002141600A46F6
:10078800C4F848014FF0010EC0F88811C0F88C1168
:10079800002EDCD0CCE7D3F88C110C43C3F88C4185
:1007A800D5E704F5A673C4F84831BBE72868FFF716
:1007B800A7FF4FF0FF30BDE8F88300BF48040020D2
:1007C800D007000800000000200000200000000002
:1007D800F8B500BFF8BC08BC9E467047F8B500BF26
:0807E800F8BC08BC9E467047F6
:0807F00004FAFF7F0100000084
:0807F800A9050008AD0100088D
:040800008901000862
:1008040000000000000000000000000001020304DA
:1008140006070809007A030A2000002000000000EF
:10082400000000000C03002074030020DC030020FF
:1008340000000000000000000000000000000000B4
:1008440000000000000000000000000000000000A4
:100854000000000000000000000000000000000094
:100864000000000000000000000000000000000084
:100874000000000000000000000000000000000074
:100884000000000000000000000000000000000064
:100894000000000000000000000000000000000054
:1008A4000000000000000000000000000000000044
:1008B4000000000000000000000000000000000034
:1008C4000000000000000000010000000000000023
:1008D4000E33CDAB34126DE6ECDE05000B000000E8
:1008E4000000000000000000000000000000000004
:1008F40000000000000000000000000000000000F4
:1009040000000000000000000000000000000000E3
:1009140000000000000000000000000000000000D3
:0C0C440000000000000000006C04002014
:040C500000000000A0
:04000005080004519A
:00000001FF
